0000000T99F10020131015                                 00001
1000000ABELARDO A B                  M11111111111S     00002
3000000CBELARDO CLB                  M11111111111S     00003
3000000CBELARDO CLB                  M11111111111S     00004
3000000CBELARDO CLB                  M11111111111S     00005
3000000CBELARDO CLB                  M11111111111S     00006
3000000CBELARDO CLB                  M11111111111S     00007
6200000ABRALINO FJOAIJDFOIAJD        M22222222222S     00008
6200000ABRALINO FJOAIJDFOIAJD        M22222222222S     00009
8000000Acpetul  FJOAIJDFOIAJD        M22222222222S     00010
8000000Acpetul  FJOAIJDFOIAJD        M22222222222S     00011
9999999000000066

0000000T99F10020170421                                 00001
9999999000000001

0000000T99F10020170421                                 00001
0600000xBELARDO x B                  M11111111111S     00002
7600000ZBELARDO Z B                  M11111111111S     00003
8100000wbelardo w b                  M11111111111P     00004
8300000Pbelardo w b                  M11111111111P     00005
9999999000000015

0000000T99F10020170421                                 00001
0600000xBELARDO x B                  M11111111111S     00002
7600000ZBELARDO Z B                  M11111111111S     00003
8100000wbelardo w b                  M11111111111P     00004
9999999000000010
