0000000T99F20020170421                                 00001
1000000ABELARDO A B                  M11111111111S   0100002
2000000BBELARDO B B                  M11111111111S   0200003
3000000CBELARDO CXB                  M11111111111S   0100004
4000000DBELARDO D B                  M11111111111C   0200005
5000000EBELARDO E B                  M11111111111S   0300006
5100000MAIZENA A X E                 F11111111111S   0100007
5200000AMARELA JJJ SSS               F11111111111C   0100008
5300000VERMELHA VVV XXX              F11111111111S   0100009
5400000VESPERTINA XXX BBB            F11111111111S   0100010
5500000DSOLINA CCCCCCCCC             F11111111111S   0100011
6200000ABRALINO FJOAIJDFOIAJD        M22222222222S   0300012
6200000ABRALINO FJOAIJDFOIAJD        M22222222222S   0300013
6200000ABRALINO FJOAIJDFOIAJD        M22222222222S   0300014
6200000ABRALINO FJOAIJDFOIAJD        M22222222222S   0300015
6300000ZARATRUSTRA F JDFOIAJD        M22222222222S   0100016
6400000VESPASIANO U FFDFOIAJD        M22222222222S   0100017
6700000UMBRAcOM FJOAIJDFOIAJD        M22222222222S   0100018 
7100000XAIZENA A X E                 F11111111111S   0200019
7200000BIARELA JJJ SSS               F11111111111C   0200020
7300000VAIMELHA VVV XXX              F11111111111S   0200021
7400000VUNPERTINA XXX BBB            F11111111111S   0200022
7500000BROLINA CCCCCCCCC             F11111111111S   0200023
8200000AGRALINO FJOAIJDFOIAJD        M22222222222S   0200024
8300000PARATUSTRO F JDFOIAJD         M22222222222S   0200025
8400000KESPASIANO U FFDFOIAJD        M22222222222S   0200026
8700000KABRALOM FJOIFJDFOIAJD        M22222222222S   0200027
9999999000000378

0000000T99F20020170421                                 00001
1000000ABELARDO A B                  M11111111111S   0300002
2000000BBELARDO B B                  M11111111111S   0100003
3000000CBELARDO C B                  M11111111111S   0300004
4000000DBELARDO D B                  M11111111111S   0300005
9999999000000015
******
0000000T99F20020170421                                 00001
1000000ABELARDO A B                  M11111111111S   0100002
2000000BBELARDO B B                  M11111111111S   0200003
3000000CBELARDO C B                  M11111111111S   0100004
4000000DBELARDO D B                  M11111111111C   0200005
5000000EBELARDO E B                  M11111111111S   0300006
5100000MAIZENA A X E                 F11111111111S   0100007
5200000AMARELA JJJ SSS               F11111111111C   0100008
5300000VERMELHA VVV XXX              F11111111111S   0100009
5400000VESPERTINA XXX BBB            F11111111111S   0100010
5500000DSOLINA CCCCCCCCC             F11111111111S   0100011
6200000ABRALINO FJOAIJDFOIAJD        M22222222222S   0100012
6300000ZARATRUSTRA F JDFOIAJD        M22222222222S   0100013
6400000VESPASIANO U FFDFOIAJD        M22222222222S   0100014
6700000UMBRAÇOM FJOAIJDFOIAJD        M22222222222S   0100015
7100000XAIZENA A X E                 F11111111111S   0200016
7200000BIARELA JJJ SSS               F11111111111C   0200017
7300000VAIMELHA VVV XXX              F11111111111S   0200018
7400000VUNPERTINA XXX BBB            F11111111111S   0200019
7500000BROLINA CCCCCCCCC             F11111111111S   0200020
8200000AGRALINO FJOAIJDFOIAJD        M22222222222S   0200021
8300000PARATUSTRO F JDFOIAJD         M22222222222S   0200022
8400000KESPASIANO U FFDFOIAJD        M22222222222S   0200023
8700000KABRALOM FJOIFJDFOIAJD        M22222222222S   0200024
9999999000000300
*** O DETALHE ACIMA QUEBRA PQ TEM Ç NO REGISTRO COM SEQ. 15 !!
0000000T99F20020170421                                 00001
1000000ABELARDO A B                  M11111111111S   0100002
2000000BBELARDO B B                  M11111111111S   0200003
3000000CBELARDO C B                  M11111111111S   0100004
4000000DBELARDO D B                  M11111111111C   0200005
5000000EBELARDO E B                  M11111111111S   0300006
7600000zBELARDO z B                  M11111111111S   0300007
9999999000000028

0000000T99F20020170421                                 00001
1000000ABELARDO A B                  M11111111111S   0100002
2000000BBELARDO B B                  M11111111111S   0200003
3000000CBELARDO C B                  M11111111111S   0100004
4000000DBELARDO D B                  M11111111111C   0200005
5000000EBELARDO E B                  M11111111111S   0300006
9999999000000021
