0000000T99F10020131015                                 00001
1000000ABELARDO A B                  M11111111111S     00002
3000000CBELARDO CLB                  M11111111111S     00003
5100000MAIZENA A X E                 F11111111111S     00004
5200000AMARELA JJJ SSS               F11111111111C     00005
5300000VERMELHA VVV XXX              F11111111111S     00006
5400000VESPERTINA XXX BBB            F11111111111S     00007
5500000DSOLINA CCCCCCCCC             F11111111111S     00008
6300000ZARATRUSTRA F JDFOIAJD        M22222222222S     00009
6400000VESPASIANO U FFDFOIAJD        M22222222222S     00010
6700000UMBRAcOM FJOAIJDFOIAJD        M22222222222S     00011
8000000Acpetul  FJOAIJDFOIAJD        M22222222222S     00012
9999999000000078
